S0260000536D6172745F4E6F74696669636174696F6E5F53797374656D5F323032352E73726563A5
S11300000C94D7000C9471020C949A020C94C302C1
S11300100C94F4000C94F4000C94EC020C948C08F2
S11300200C94F4000C9463080C94F4000C94F40005
S11300300C94F4000C94D5080C94F4000C94FF0870
S11300400C94F4000C94F4000C94F4000C94F4005C
S11300500C94F40002011B0134014D01650165019A
S1130060650165016501650165016501650165015C
S1130070650165016501650165016501650165014C
S1130080650165016501650165016501650165013C
S11300906501650102011B0134014D0172018B01EF
S11300A0A401BD01D501D501D501D501D501D501E5
S11300B0D501D501D501D501D501D501D501D5018C
S11300C0D501D501D501D501D501D501D501D5017C
S11300D0D501D501D501D501D501D50172018B0119
S11300E0A401BD01E101E301E501E701E801E80143
S11300F0E801E801E801E801E801E801E801E801B4
S1130100E801E801E801E801E801E801E801E801A3
S1130110E801E801E801E801E801E801E801E80193
S1130120E801E801E101E301E501E7010763423683
S1130130B79BD8A71A39685618AEBAAB558C1D3C74
S1130140B7CC5763BD6DEDFD753EF6177231BF0038
S11301500000803F08000000BE922449123EABAA72
S1130160AA2ABECDCCCC4C3E00000080BEABAAAACD
S1130170AA3E00000000BF000000803F0000000015
S113018000084178D3BB4387D1133D190E3CC3BD4E
S11301904282AD2B3E68EC8276BED98FE1A93E4CFB
S11301A080EFFFBE01C4FF7F3F0000000000112468
S11301B01FBECFE5D8E0DEBFCDBF10E0A0E6B0E0C3
S11301C0E4E5FAE102C005900D92A43BB107D9F72A
S11301D020E0A4EBB0E001C01D92A33DB207E1F71B
S11301E00E9460060C94280D0C94000090E0FC0121
S11301F0E154F109E432F10508F067C0E65DFF4F10
S11302000C94FF0C413059F42AB381E090E002C011
S1130210880F991F6A95E2F7822B8ABB08952AB347
S113022081E090E002C0880F991F6A95E2F78095FB
S113023082238ABB0895413059F427B381E090E0CA
S113024002C0880F991F6A95E2F7822B87BB089535
S113025027B381E090E002C0880F991F6A95E2F706
S11302608095822387BB0895413059F424B381E0FB
S113027090E002C0880F991F6A95E2F7822B84BB35
S1130280089524B381E090E002C0880F991F6A9515
S1130290E2F78095822384BB0895413059F421B359
S11302A081E090E002C0880F991F6A95E2F7822BE3
S11302B081BB089521B381E090E002C0880F991FAB
S11302C06A95E2F78095822381BB089590E0FC0152
S11302D0E154F109E432F10508F067C0E25BFF4F35
S11302E00C94FF0C41110CC02BB381E090E002C0D0
S11302F0880F991F6A95E2F7809582238BBB089536
S11303002BB381E090E002C0880F991F6A95E2F751
S1130310822B8BBB089541110CC028B381E090E07F
S113032002C0880F991F6A95E2F78095822388BBE3
S1130330089528B381E090E002C0880F991F6A9560
S1130340E2F7822B88BB089541110CC025B381E0EC
S113035090E002C0880F991F6A95E2F78095822386
S113036085BB089525B381E090E002C0880F991FF2
S11303706A95E2F7822B85BB089541110CC022B324
S113038081E090E002C0880F991F6A95E2F780959A
S1130390822382BB089522B381E090E002C0880FDB
S11303A0991F6A95E2F7822B82BB089590E0FC01C5
S11303B0E154F109E432F10558F4EE58FF4F0C947E
S11303C0FF0C6BBB089568BB089565BB089562BBC1
S11303D00895813049F120F0823009F449C008952C
S11303E081B38B7F81BB82B3846082BB613051F067
S11303F028F0623071F0633099F0089585B78C7FEE
S113040085BF089585B78D7F85BF85B7816085BF1A
S1130410089585B7826085BF85B78E7F85BF0895AF
S113042085B7836085BF089581B3877F81BB82B31D
S1130430886082BB613051F028F0623071F0633023
S113044099F0089585B7837F85BF089585B7877F21
S113045085BF85B7846085BF089585B7886085BFEB
S113046085B78B7F85BF089585B78C6085BF089558
S113047087B38B7F87BB88B3846088BB623021F4E9
S113048084B78F7B84BF0895633019F484B7806484
S113049084BF0895813041F018F0823049F0089506
S11304A08BB780648BBF08958BB780688BBF08952A
S11304B08BB780628BBF0895811105C07093B9001A
S11304C06093B8000895813029F47093B700609365
S11304D0B6000895823021F47093B5006093B4009F
S11304E008951F920F920FB60F9211242F933F93EA
S11304F04F935F936F937F938F939F93AF93BF9328
S1130500EF93FF93E091B800F091B900309709F0B0
S11305100995FF91EF91BF91AF919F918F917F9139
S11305206F915F914F913F912F910F900FBE0F905C
S11305301F9018951F920F920FB60F9211242F93AC
S11305403F934F935F936F937F938F939F93AF9357
S1130550BF93EF93FF93E091B600F091B70030970B
S113056009F00995FF91EF91BF91AF919F918F9100
S11305707F916F915F914F913F912F910F900FBE9B
S11305800F901F9018951F920F920FB60F9211247F
S11305902F933F934F935F936F937F938F939F9387
S11305A0AF93BF93EF93FF93E091B400F091B50044
S11305B0309709F00995FF91EF91BF91AF919F9109
S11305C08F917F916F915F914F913F912F910F90F8
S11305D00FBE0F901F9018951F920F920FB60F9297
S11305E011242F933F934F935F936F937F938F9334
S11305F09F93AF93BF93EF93FF93E091BA00F09171
S1130600BB00309709F00995FF91EF91BF91AF912D
S11306109F918F917F916F915F914F913F912F9116
S11306200F900FBE0F901F901895811104C08EB5C6
S113063080648EBD0895813019F48EB58F7B8EBD94
S1130640089589B7806289BF0895CF93C82F40E089
S113065066E084E60E94F6001FBC1EBC8EB5826074
S11306608EBD8C2F0E9415031DBC1CBC17BC16BC70
S11306700E942103CF9108959093BB008093BA0008
S1130680089586B597B5089541E061E082E40E943B
S113069066018FEC97E00197F1F700C0000040E09D
S11306A061E082E40E9466010895CF93C82F40E080
S11306B060E082E40E9466016C2F81E40E94D6010E
S11306C00E944403CF9108958FE39CE90197F1F7C9
S11306D000C0000041E064E081E40E94F60041E0D3
S11306E065E081E40E94F60041E066E081E40E9456
S11306F0F60041E067E081E40E94F60041E060E03A
S113070082E40E94F60041E061E082E40E94F60087
S11307109FEF29EF80E0915020408040E1F700C036
S1130720000080E20E94550380E20E94550380E8A5
S11307300E9455039AE69A95F1F700C080E00E9462
S1130740550380EF0E9455032AE62A95F1F700C06D
S113075080E00E94550380E10E9455038FE99FE0E9
S11307600197F1F700C0000080E00E94550380E487
S11307700E9455030895CF93C82F41E060E082E4BE
S11307800E9466016C2F607F81E40E94D6010E9462
S113079044038FEC97E00197F1F700C000006C2F41
S11307A06295607F81E40E94D6010E9444038FE930
S11307B09FE00197F1F700C00000CF910895CF9317
S11307C0DF93EC0103C00E94BB0321968881811151
S11307D0FACFDF91CF910895CF938111605CC0E887
S11307E0C60F8C2F807F0E9455038C2F8295807FAB
S11307F00E945503CF9108959C0141E0892B09F093
S113080040E050E00DC04F5F5F4FADECBCEC0E9488
S1130810050D9C0136952795369527953695279590
S11308202115310581F7CA0108950F931F93CF93C2
S1130830DF93CDB7DEB760970FB6F894DEBF0FBE77
S1130840CDBF8C010E94FC03FC0140E050E031C0AC
S11308509801ADECBCEC0E94050D96958795969594
S11308608795969587959C01220F331F880F991FB2
S1130870880F991F880F991F820F931F9801281BB7
S1130880390BC901A1E0B0E0AC0FBD1FA40FB51F27
S1130890805D8C939801ADECBCEC0E94050D8C013D
S11308A016950795169507951695079531974F5FF9
S11308B05F4F309769F6E1E0F0E0EC0FFD1FE40FC5
S11308C0F51F1082CA01019720E030E013C0A1E0B7
S11308D0B0E0AC0FBD1FA20FB31F4C91E1E0F0E0FC
S11308E0EC0FFD1FE80FF91F50815C9340832F5FCD
S11308F03F4F01972817390750F300E010E00AC072
S1130900811104C080E30E94BB0302C00E94BB03A8
S11309100F5F1F4FE1E0F0E0EC0FFD1FE00FF11F50
S113092080818111EDCF60960FB6F894DEBF0FBEC3
S1130930CDBFDF91CF911F910F91089580E00E9468
S1130940550380E10E94550308958F929F92AF92C0
S1130950BF92CF92DF92EF92FF92CF93DF936B011E
S11309607C01D42F20E030E0A9010E94950988235E
S11309703CF48DE20E94BB03F7FAF094F7F8F0948C
S1130980C701B6010E940C0A4B015C01072E000C42
S1130990880B990B0E94440A9B01AC01C701B60164
S11309A00E9428096B017C01C4010E941504DD2307
S11309B019F08EE20E94BB036D2F70E080E090E09E
S11309C00E94420A9B01AC0160E070E080E291E485
S11309D00E94660B9B01AC01C701B6010E94F90A93
S11309E020E030E040E05FE30E9429090E940C0A05
S11309F06B017C01CB01C0E006C0CF5F6AE070E010
S1130A000E94EB0CCB0118161906BCF305C080E05C
S1130A1090E00E941504CF5FCD17C8F3C6010E9471
S1130A201504DF91CF91FF90EF90DF90CF90BF90AE
S1130A30AF909F908F900895CF93DF93EA010E9427
S1130A40EC03CE010E94DF03DF91CF910895CF9391
S1130A50DF93EB0190E001C09F5FFE01E90FF11D00
S1130A6020812111F9CF903158F420E130E0291B85
S1130A703109B90112F46F5F7F4F7595679501C015
S1130A8060E00E94EC03CE010E94DF03DF91CF916E
S1130A900895EF92FF920F931F93CF93DF937C01FE
S1130AA08B01D42FC0E01DC0B70180E00E94270550
S1130AB0B80181E00E9427052FEF83EC99E02150D3
S1130AC080409040E1F700C000000E949E042FEF98
S1130AD083EC99E0215080409040E1F700C0000091
S1130AE0CF5FCD1708F3B70180E00E942705B80156
S1130AF081E00E942705DF91CF911F910F91FF9014
S1130B00EF900895CF93DF93C82FD62F41E00E9432
S1130B10F60041E06D2F8C2F0E946601DF91CF918A
S1130B200895CF93DF93C82FD62F41E00E94F6009B
S1130B3040E06D2F8C2F0E946601DF91CF910895C4
S1130B408091BC008E3128F081E08093BD0010922A
S1130B50BC008091BC008F5F8093BC00089581E04D
S1130B608093BE00089581E08093BF000895809132
S1130B70CA0081110DC00E9441039093C900809363
S1130B80C80081E00E94150381E08093CA000895A3
S1130B908091CA008130A9F50E9441039093C70057
S1130BA08093C6008091C6009091C7002091C80030
S1130BB03091C900821B930B9093C5008093C400AD
S1130BC06091C4007091C50080E090E00E94420AE8
S1130BD020E030E040E053E40E94F90A20E030E0F5
S1130BE048E652E40E949A096093C0007093C100E1
S1130BF08093C2009093C30080E00E94150310927A
S1130C00CA000895813669F460E00E94C50760E077
S1130C1082E60E94C50741E063E084E60E94660123
S1130C200895823671F461E081E60E94C50761E0AF
S1130C3082E60E94C50740E063E084E60E94660104
S1130C400895833671F462E081E60E94C50762E08C
S1130C5082E60E94C50741E067E084E60E946601DF
S1130C600895843671F463E081E60E94C50763E069
S1130C7082E60E94C50740E067E084E60E946601C0
S1130C800895853669F464E081E60E94C50764E04E
S1130C9082E60E94C50741E060E083E60E946601A7
S1130CA0089541E060E083E60E9466018AE18A9546
S1130CB0F1F700C040E060E083E60E946601089519
S1130CC0CF93DF9300D0CDB7DEB782E00E94AB07AD
S1130CD00E94640381E089838A8380E00E94250363
S1130CE041E060E083E60E94F60087EB95E00E9415
S1130CF03C03CE0101960E94260885E89EE10E94ED
S1130D005B0880EA95E00E945E0885E00E94540832
S1130D1062E080E00E94E90162E081E00E94E90172
S1130D2080E00E944A0281E00E944A026FEA75E074
S1130D3080E00E945C0263EB75E081E00E945C024B
S1130D4060E081E00E94B50882E096E00E94D0084D
S1130D5078948FE19EE40197F1F700C000000E94AF
S1130D609E048091BD00813069F40E949E0443E09A
S1130D7064E670E080E790E00E9449051092BD00AF
S1130D800E949E048091BE00813069F40E949E04FA
S1130D9043E069E770E083E890E00E94490510921F
S1130DA0BE000E949E048091BF00813069F40E94BD
S1130DB09E0443E068E870E081E990E00E94490500
S1130DC01092BF000E949E040E9451068FE59AEE85
S1130DD00197F1F700C000006091C0007091C1005C
S1130DE08091C2009091C300209160003091610015
S1130DF040916200509163000E9428099F7720E08F
S1130E0030E040E05FE30E94F40A88235CF147E9A4
S1130E1050E060E080E00E941C0569E080E00E94F0
S1130E20EC036091C0007091C1008091C200909168
S1130E30C30041E00E94A50447EA50E060E081E07D
S1130E400E941C058091C0009091C100A091C20035
S1130E50B091C3008093600090936100A0936200FE
S1130E60B09363006091C0007091C1008091C20092
S1130E709091C30020E030E048E453E40E949509D7
S1130E8018162CF060E081E60E94820514C060917F
S1130E90C0007091C1008091C2009091C30020E015
S1130EA030E048E453E40E94F40A181624F460E0A5
S1130EB081E60E9491059FEF21EE84E0915020404D
S1130EC08040E1F700C000004CCF0F931F93922F96
S1130ED01DBC1CBC6230A9F028F4662341F06130CB
S1130EE059F021C0633091F06430B9F01CC021E0A6
S1130EF02FBD28E02EBD17C022E02FBD28E02EBD57
S1130F0012C023E02FBD28E02EBD0DC022E02FBD6E
S1130F1028E12EBD1BBD0ABD06C022E02FBD28E17D
S1130F202EBD17BD06BD5FB520E4429FB00111245C
S1130F3040E1949F90011124262B252B2FBD9EB5B3
S1130F40892B8EBD1F910F9108959BBD8ABD089575
S1130F5099BD88BD08950F931F93813049F404EC23
S1130F6019E020E042E064E083E00E9465070AC0E3
S1130F70823041F404EC19E022E042E064E083E0D2
S1130F800E9465071F910F910895CF93C62F813456
S1130F9011F0813659F541E065E084E60E94F600DF
S1130FA0C230A9F02CF4CC2341F0C13059F04CC02C
S1130FB0C33091F0C430A9F047C08DE790E00E949F
S1130FC0A50742C08CE990E00E94A5073DC08BEBC9
S1130FD090E00E94A50738C08BED90E00E94A50721
S1130FE033C08AEF90E00E94A5072EC0823411F02E
S1130FF0823651F541E064E084E60E94F600C23096
S1131000A9F02CF4CC2341F0C13059F01DC0C330F9
S113101091F0C430A9F018C08DE790E00E94A807B1
S113102013C08CE990E00E94A8070EC08BEB90E0FF
S11310300E94A80709C08BED90E00E94A80704C095
S11310408AEF90E00E94A807CF910895FC01808167
S1131050811107C08FB58C7F8FBD8EB5877E8EBD05
S11310600BC0813049F48FB58C7F8FBD8EB58F7ED8
S11310708EBD8EB588608EBD1DBC1CBC8181813047
S113108069F48081811104C089B7846089BF08959F
S1131090813049F489B7806189BF0895811103C003
S11310A089B78B7E89BF08959EB5987F9EBD9EB5F6
S11310B0892B8EBD08959BBD8ABD08959093D2005F
S11310C08093D10008951F920F920FB60F921124AE
S11310D02F933F934F935F936F937F938F939F933C
S11310E0AF93BF93EF93FF93E091CF00F091D000C3
S11310F0309709F00995FF91EF91BF91AF919F91BE
S11311008F917F916F915F914F913F912F910F90AC
S11311100FBE0F901F9018951F920F920FB60F924B
S113112011242F933F934F935F936F937F938F93E8
S11311309F93AF93BF93EF93FF93E091D100F0910E
S1131140D200309709F00995FF91EF91BF91AF91CB
S11311509F918F917F916F915F914F913F912F91CB
S11311600F900FBE0F901F90189598E19AB996EAC8
S113117090BD611104C093E399B910BC0BC06130F8
S113118021F49CE099B910BC05C0623019F493E0D5
S113119099B910BC813019F48AB1806C8AB9089568
S11311A09093CE008093CD0008951F920F920FB6B6
S11311B00F9211242F933F934F935F936F937F93D9
S11311C08F939F93AF93BF93EF93FF93E091CD00E1
S11311D0F091CE00309711F08CB10995FF91EF9109
S11311E0BF91AF919F918F917F916F915F914F913B
S11311F03F912F910F900FBE0F901F9018951F9243
S11312000F920FB60F9211242F933F934F935F9336
S11312106F937F938F939F93AF93BF93EF93FF93BA
S1131220E091CB00F091CC00309709F00995FF9143
S1131230EF91BF91AF919F918F917F916F915F914A
S11312404F913F912F910F900FBE0F901F901895C3
S11312505058BB27AA270E9440090C94BA0A0E943E
S1131260AC0A38F00E94B30A20F039F49F3F19F415
S113127026F40C94A90A0EF4E095E7FB0C94A30A57
S1131280E92F0E94CB0A58F3BA1762077307840741
S1131290950720F079F4A6F50C94ED0A0EF4E09588
S11312A00B2EBA2FA02D0B01B90190010C01CA011C
S11312B0A0011124FF27591B99F0593F50F4503EC7
S11312C068F11A16F040A22F232F342F4427585FB9
S11312D0F3CF469537952795A795F0405395C9F7D1
S11312E07EF41F16BA0B620B730B840BBAF0915089
S11312F0A1F0FF0FBB1F661F771F881FC2F70EC028
S1131300BA0F621F731F841F48F4879577956795FA
S1131310B795F7959E3F08F0B0CF9395880F08F0E6
S11313209927EE0F9795879508950E947F0A08F4F0
S113133081E008950E94AE090C94BA0A0E94B30A8F
S113134058F00E94AC0A40F029F45F3F29F00C9455
S1131350A30A51110C94EE0A0C94A90A0E94CB0A18
S113136068F39923B1F3552391F3951B550BBB27D0
S1131370AA2762177307840738F09F5F5F4F220F15
S1131380331F441FAA1FA9F335D00E2E3AF0E0E80C
S113139032D091505040E695001CCAF72BD0FE2F56
S11313A029D0660F771F881FBB1F261737074807EA
S11313B0AB07B0E809F0BB0B802DBF01FF279358A2
S11313C05F4F3AF09E3F510578F00C94A30A0C94B9
S11313D0EE0A5F3FE4F3983ED4F3869577956795DC
S11313E0B795F7959F5FC9F7880F911D96958795D7
S11313F097F90895E1E0660F771F881FBB1F6217F6
S113140073078407BA0720F0621B730B840BBA0BB3
S1131410EE1F88F7E09508950E94130A6894B111AD
S11314200C94EE0A08950E94D30A88F09F5798F00E
S1131430B92F9927B751B0F0E1F0660F771F881FD5
S1131440991F1AF0BA95C9F714C0B13091F00E94EF
S1131450ED0AB1E008950C94ED0A672F782F8827E0
S1131460B85F39F0B93FCCF3869577956795B39516
S1131470D9F73EF490958095709561957F4F8F4F85
S11314809F4F0895E89409C097FB3EF4909580958A
S1131490709561957F4F8F4F9F4F9923A9F0F92F36
S11314A096E9BB279395F695879577956795B795B4
S11314B0F111F8CFFAF4BB0F11F460FF1BC06F5F9A
S11314C07F4F8F4F9F4F16C0882311F096E911C0AC
S11314D0772321F09EE8872F762F05C0662371F0CD
S11314E096E8862F70E060E02AF09A95660F771FE1
S11314F0881FDAF7880F9695879597F90895990FBD
S11315000008550FAA0BE0E8FEEF16161706E807C9
S1131510F907C0F012161306E407F50798F0621BEA
S1131520730B840B950B39F40A2661F0232B242BBF
S1131530252B21F408950A2609F4A140A6958FEFDE
S1131540811D811D089597F99F6780E870E060E030
S113155008959FEF80EC089500240A941616170648
S113156018060906089500240A9412161306140690
S113157005060895092E0394000C11F4882352F0F3
S1131580BB0F40F4BF2B11F460FF04C06F5F7F4FAB
S11315908F4F9F4F089557FD9058440F551F59F092
S11315A05F3F71F04795880F97FB991F61F09F3F4C
S11315B079F087950895121613061406551FF2CF75
S11315C04695F1DF08C0161617061806991FF1CFC5
S11315D086957105610508940895E894BB276627EC
S11315E07727CB0197F908950E947F0A08F48FEFBB
S11315F008950E940C0B0C94BA0A0E94AC0A38F0AD
S11316000E94B30A20F0952311F00C94A30A0C94C1
S1131610A90A11240C94EE0A0E94CB0A70F3959F38
S1131620C1F3950F50E0551F629FF001729FBB27D5
S1131630F00DB11D639FAA27F00DB11DAA1F649F71
S11316406627B00DA11D661F829F2227B00DA11D24
S1131650621F739FB00DA11D621F839FA00D611DAA
S1131660221F749F3327A00D611D231F849F600DCB
S1131670211D822F762F6A2F11249F5750409AF0F4
S1131680F1F088234AF0EE0FFF1FBB1F661F771F80
S1131690881F91505040A9F79E3F510580F00C944B
S11316A0A30A0C94EE0A5F3FE4F3983ED4F38695C4
S11316B077956795B795F795E7959F5FC1F7FE2BEB
S11316C0880F911D9695879597F90895FA01EE0F65
S11316D0FF1F309621053105A1F16115710561F4F3
S11316E08038BFE39B0749F168949038810561F025
S11316F08038BFEF9B0741F099234AF5FF3FE1058E
S11317003105210519F1E8940894E795D901AA2334
S113171029F4AB2FBE2FF85FD0F310C0FF5F70F435
S1131720A695E0F7F73950F019F0FF3A38F49F77AF
S11317309F930DD00F9007FC9058089546F00C9499
S1131740A90A60E070E080E89FE308954FE79F777F
S11317505F934F933F932F930E94610C2F913F917E
S11317604F915F910E94F90A0C94BE0B29F416F074
S11317700C94A30A0C94ED0A0C94A90A0E94D30AAF
S1131780A8F39638A0F707F80F92E8942BE33AEA07
S113179048EB5FE70E940F0B0F920F920F924DB729
S11317A05EB70F920E94A90CECE2F1E00E94F00BEC
S11317B04F915F91EF91FF91E595EE1FFF1F49F067
S11317C0FE57E0684427EE0F441FFA95E1F7419570
S11317D0550B0E94230C0F9007FE0C94170C0895D0
S11317E0DF93CF931F930F93FF92EF92DF927B01CE
S11317F08C01689406C0DA2EEF010E940C0BFE01E6
S1131800E894A5912591359145915591A6F3EF0161
S11318100E944009FE019701A801DA9469F7DF905C
S1131820EF90FF900F911F91CF91DF9108959B014D
S1131830AC0160E070E080E89FE30C949A090C949A
S1131840A30A0C94DD0C0E94D30AD8F39923C9F39C
S1131850940F511DA3F39150504094F059F08823F4
S113186032F0660F771F881F91505040C1F79E3F9A
S113187051052CF7880F911D9695879597F9089532
S11318805F3FACF0983E9CF0BB27869577956795B3
S1131890B79508F4B1609395C1F7BB0F58F711F4ED
S11318A060FFE8CF6F5F7F4F8F4F9F4FE3CF0C9464
S11318B0EE0A16F00C94DD0C0C94A90A68940C94AE
S11318C0A30A0E94D30AA8F39923C1F3AEF3DF93CA
S11318D0CF931F930F93FF92C92FDD2788232AF0FC
S11318E02197660F771F881FDAF720E030E040E881
S11318F05FEB9FE3883920F0803E38F021968F77A4
S11319000E942909E4E5F1E004C00E942909E1E804
S1131910F1E00E94F00B8B01BE01EC01FB2E6F572E
S113192071097595771F880B990B0E94440A28E169
S113193032E741E35FE30E940C0BAF2D9801AE0147
S1131940FF900F911F91CF91DF910E9440090C9459
S1131950BA0AFA01DC01AA0FBB1F9B01AC01BF57F5
S113196028F4222733274427507820C0B75190F415
S1131970AB2F0024469537952795011CA395D2F3E8
S1131980002071F0220F331F441FB395DAF30ED0F9
S11319900C94280961307105A0E88A07B94630F42F
S11319A09B01AC016627772788279078309621F031
S11319B0208331834283538308959F3F31F09150B4
S11319C020F4879577956795B795880F911D96951F
S11319D0879597F9089597FB072E16F4009407D07E
S11319E077FD09D00E94140D07FC05D03EF49095B4
S11319F081959F4F0895709561957F4F0895EE0FDF
S1131A00FF1F0590F491E02D0994A29FB001B39FAC
S1131A10C001A39F700D811D1124911DB29F700DF3
S1131A20811D1124911D0895AA1BBB1B51E107C000
S1131A30AA1FBB1FA617B70710F0A61BB70B881F5A
S1131A40991F5A95A9F780959095BC01CD010895E9
S1071A50F894FFCF34
S1131A54000080BF546865204D616368696E650049
S1131A645475726E2D4F66660056696272617469AC
S1131A746F6E0048696768004465746563746564DF
S1131A8400536D6F6B650044697374616E63653DE7
S1131A9420202020202000636D20202020202020CE
S1071AA420202000DA
S9030000FC
